:1000000019C02BC02AC029C028C027C026C025C0BF
:1000100024C023C022C022C020C01FC01EC01DC0DB
:100020001CC01BC01AC019C018C017C016C015C00C
:1000300014C013C011241FBECFEFD4E0DEBFCDBF6C
:1000400011E0A0E0B1E0E8E4F1E002C005900D921B
:10005000A230B107D9F74BD075C0D2CF0F920FB6EF
:100060000F921F9211242F933F938F939F9386B1EA
:1000700090E08095909534E0959587953A95E1F7D5
:100080008370813011F5809300018091B00090E180
:1000900089278093B000809100018823D9F085B131
:1000A00095B1880F991F9927991F892B85B9809140
:1000B000B3008F5F8093B3009F918F913F912F91F9
:1000C0001F900F900FBE0F9018958230F1F610928E
:1000D0000001DBCF85B125B1869590E8299F90017D
:1000E0001124822B85B98091B3008150E3CF8FEF2B
:1000F00084B98FE087B98EEF8AB987E085B980E34C
:1001000088B91BB81092B20086E98093B30082E1EF
:100110008093B00084E08093B1001092850010922B
:10012000840086E891E09093890080938800109283
:1001300080008DE08093810082E080936F0078944E
:08014000A895FECFF894FFCF53
:020148000100B4
:00000001FF
