:1000000019C020C01FC01EC01DC01CC01BC01AC00C
:1000100019C018C017C016C015C014C013C012C034
:1000200011C010C00FC00EC00DC00CC00BC00AC064
:1000300009C008C011241FBECFEFD4E0DEBFCDBF82
:1000400002D029C0DDCF80E387B988B940E050E015
:10005000BA0180E090E0DC0120E1A8954F5F5F4F9E
:100060006F4F7F4F443051056105710531F40196A2
:10007000A11DB11D40E050E0BA0180343DE093077E
:1000800033E0A307B10548F388B1822788B980E03F
:0A00900090E0DC01E2CFF894FFCF0E
:00000001FF
