:1000000019C020C01FC01EC01DC01CC01BC01AC00C
:1000100019C018C017C016C015C014C013C012C034
:1000200011C010C00FC00EC00DC00CC00BC00AC064
:1000300009C008C011241FBECFEFD4E0DEBFCDBF82
:1000400002D032C0DDCF80E387B980E188B940E0DB
:1000500050E0BA0180E090E0DC01A8950196A11D76
:10006000B11D803920ED920723E0A207B10578F099
:100070004C595F4F6F4F7F4F449A403980ED58077E
:1000800083E06807710560F480E090E0DC0184178C
:100090009507A607B70709F74498DB01CA01DDCF2A
:0C00A00040E050E0BA01F8CFF894FFCF28
:00000001FF
