:1000000019C020C01FC01EC01DC01CC01BC01AC00C
:1000100019C018C017C016C015C014C013C012C034
:1000200011C010C00FC00EC00DC00CC00BC00AC064
:1000300009C008C011241FBECFEFD4E0DEBFCDBF82
:1000400002D026C0DDCF80E387B988B980E090E098
:10005000DC0130E240E1A8950196A11DB11D80347C
:100060002DE0920723E0A207B10538F088B184277C
:1000700088B980E090E0DC01EECF803F29E4920770
:1000800022E0A207B10539F728B1232728B9E3CF29
:04009000F894FFCF12
:00000001FF
